{
  "contractName": "CryptoSelectionBallot",
  "abi": [
    {
      "inputs": [
        {
          "name": "numProposals",
          "type": "uint8"
        }
      ],
      "payable": false,
      "stateMutability": "nonpayable",
      "type": "constructor"
    },
    {
      "constant": false,
      "inputs": [
        {
          "name": "voter",
          "type": "address"
        }
      ],
      "name": "enterAddress",
      "outputs": [],
      "payable": false,
      "stateMutability": "nonpayable",
      "type": "function"
    },
    {
      "constant": false,
      "inputs": [
        {
          "name": "_age",
          "type": "uint8"
        }
      ],
      "name": "enterAge",
      "outputs": [],
      "payable": false,
      "stateMutability": "nonpayable",
      "type": "function"
    },
    {
      "constant": false,
      "inputs": [
        {
          "name": "_ismember",
          "type": "uint8"
        }
      ],
      "name": "enterMembershipDetails",
      "outputs": [],
      "payable": false,
      "stateMutability": "nonpayable",
      "type": "function"
    },
    {
      "constant": false,
      "inputs": [
        {
          "name": "_isVotedAlready",
          "type": "uint8"
        }
      ],
      "name": "enterVoteDetails",
      "outputs": [],
      "payable": false,
      "stateMutability": "nonpayable",
      "type": "function"
    },
    {
      "constant": false,
      "inputs": [
        {
          "name": "voter",
          "type": "address"
        }
      ],
      "name": "registerAddress",
      "outputs": [],
      "payable": false,
      "stateMutability": "nonpayable",
      "type": "function"
    },
    {
      "constant": false,
      "inputs": [
        {
          "name": "x",
          "type": "uint8"
        }
      ],
      "name": "change",
      "outputs": [],
      "payable": false,
      "stateMutability": "nonpayable",
      "type": "function"
    },
    {
      "constant": false,
      "inputs": [
        {
          "name": "toProposal",
          "type": "uint8"
        }
      ],
      "name": "vote",
      "outputs": [],
      "payable": false,
      "stateMutability": "nonpayable",
      "type": "function"
    },
    {
      "constant": true,
      "inputs": [],
      "name": "reqWinner",
      "outputs": [
        {
          "name": "winningProposal",
          "type": "uint8"
        }
      ],
      "payable": false,
      "stateMutability": "view",
      "type": "function"
    }
  ],
  "bytecode": "0x60806040526000600460006101000a81548160ff021916908360ff16021790555034801561002c57600080fd5b50604051602080610ccb8339810180604052602081101561004c57600080fd5b8101908080519060200190929190505050336000806101000a81548173ffffffffffffffffffffffffffffffffffffffff021916908373ffffffffffffffffffffffffffffffffffffffff1602179055508060ff166002816100ae919061013a565b506004600360008060009054906101000a900473ffffffffffffffffffffffffffffffffffffffff1673ffffffffffffffffffffffffffffffffffffffff1673ffffffffffffffffffffffffffffffffffffffff168152602001908152602001600020600001819055506001600460006101000a81548160ff021916908360ff1602179055505061018d565b815481835581811115610161578183600052602060002091820191016101609190610166565b5b505050565b61018a91905b80821115610186576000808201600090555060010161016c565b5090565b90565b610b2f8061019c6000396000f3fe608060405234801561001057600080fd5b50600436106100885760003560e01c80638a8ab7a21161005b5780638a8ab7a214610144578063a8a5400814610175578063b3f98adc146101b9578063f6f9aaa8146101ea57610088565b80632ab708a01461008d578063508b30c9146100be5780636339a275146100e257806388a2f51f14610113575b600080fd5b6100bc600480360360208110156100a357600080fd5b81019080803560ff16906020019092919050505061022e565b005b6100c66102ae565b604051808260ff1660ff16815260200191505060405180910390f35b610111600480360360208110156100f857600080fd5b81019080803560ff169060200190929190505050610355565b005b6101426004803603602081101561012957600080fd5b81019080803560ff169060200190929190505050610373565b005b6101736004803603602081101561015a57600080fd5b81019080803560ff1690602001909291905050506103f3565b005b6101b76004803603602081101561018b57600080fd5b81019080803573ffffffffffffffffffffffffffffffffffffffff169060200190929190505050610473565b005b6101e8600480360360208110156101cf57600080fd5b81019080803560ff16906020019092919050505061069e565b005b61022c6004803603602081101561020057600080fd5b81019080803573ffffffffffffffffffffffffffffffffffffffff1690602001909291905050506109a2565b005b8060036000600160009054906101000a900473ffffffffffffffffffffffffffffffffffffffff1673ffffffffffffffffffffffffffffffffffffffff1673ffffffffffffffffffffffffffffffffffffffff16815260200190815260200160002060010160026101000a81548160ff021916908360ff16021790555050565b600060038060ff16600460009054906101000a900460ff1660ff16146102d357600080fd5b600080905060008090505b6002805490508160ff161015610344578160028260ff16815481106102ff57fe5b906000526020600020016000015411156103375760028160ff168154811061032357fe5b906000526020600020016000015491508093505b80806001019150506102de565b50600181101561035057fe5b505090565b80600460006101000a81548160ff021916908360ff16021790555050565b8060036000600160009054906101000a900473ffffffffffffffffffffffffffffffffffffffff1673ffffffffffffffffffffffffffffffffffffffff1673ffffffffffffffffffffffffffffffffffffffff16815260200190815260200160002060010160006101000a81548160ff021916908360ff16021790555050565b8060036000600160009054906101000a900473ffffffffffffffffffffffffffffffffffffffff1673ffffffffffffffffffffffffffffffffffffffff1673ffffffffffffffffffffffffffffffffffffffff16815260200190815260200160002060010160016101000a81548160ff021916908360ff16021790555050565b601360036000600160009054906101000a900473ffffffffffffffffffffffffffffffffffffffff1673ffffffffffffffffffffffffffffffffffffffff1673ffffffffffffffffffffffffffffffffffffffff16815260200190815260200160002060010160009054906101000a900460ff1660ff1610156104f557600080fd5b600160036000600160009054906101000a900473ffffffffffffffffffffffffffffffffffffffff1673ffffffffffffffffffffffffffffffffffffffff1673ffffffffffffffffffffffffffffffffffffffff16815260200190815260200160002060010160019054906101000a900460ff1660ff161461057657600080fd5b601360036000600160009054906101000a900473ffffffffffffffffffffffffffffffffffffffff1673ffffffffffffffffffffffffffffffffffffffff1673ffffffffffffffffffffffffffffffffffffffff16815260200190815260200160002060010160009054906101000a900460ff1660ff1610156105f857600080fd5b6001600360008373ffffffffffffffffffffffffffffffffffffffff1673ffffffffffffffffffffffffffffffffffffffff16815260200190815260200160002060010160046101000a81548160ff0219169083151502179055506000600360008373ffffffffffffffffffffffffffffffffffffffff1673ffffffffffffffffffffffffffffffffffffffff1681526020019081526020016000206002018190555050565b6001151560036000600160009054906101000a900473ffffffffffffffffffffffffffffffffffffffff1673ffffffffffffffffffffffffffffffffffffffff1673ffffffffffffffffffffffffffffffffffffffff16815260200190815260200160002060010160049054906101000a900460ff1615151461072057600080fd5b60028060ff16600460009054906101000a900460ff1660ff161461074357600080fd5b600460036000600160009054906101000a900473ffffffffffffffffffffffffffffffffffffffff1673ffffffffffffffffffffffffffffffffffffffff1673ffffffffffffffffffffffffffffffffffffffff1681526020019081526020016000206002015411156107b557600080fd5b6107bd610ab8565b60036000600160009054906101000a900473ffffffffffffffffffffffffffffffffffffffff1673ffffffffffffffffffffffffffffffffffffffff1673ffffffffffffffffffffffffffffffffffffffff1681526020019081526020016000206040518060e0016040529081600082015481526020016001820160009054906101000a900460ff1660ff1660ff1681526020016001820160019054906101000a900460ff1660ff1660ff1681526020016001820160029054906101000a900460ff1660ff1660ff1681526020016001820160039054906101000a900460ff1660ff1660ff1681526020016001820160049054906101000a900460ff1615151515815260200160028201548152505090506002805490508360ff16106108e257600080fd5b6108ec600161022e565b6108f46109e6565b8260036000600160009054906101000a900473ffffffffffffffffffffffffffffffffffffffff1673ffffffffffffffffffffffffffffffffffffffff1673ffffffffffffffffffffffffffffffffffffffff16815260200190815260200160002060010160036101000a81548160ff021916908360ff160217905550600160028460ff168154811061098357fe5b9060005260206000200160000160008282540192505081905550505050565b80600160006101000a81548173ffffffffffffffffffffffffffffffffffffffff021916908373ffffffffffffffffffffffffffffffffffffffff16021790555050565b600160036000600160009054906101000a900473ffffffffffffffffffffffffffffffffffffffff1673ffffffffffffffffffffffffffffffffffffffff1673ffffffffffffffffffffffffffffffffffffffff168152602001908152602001600020600201540160036000600160009054906101000a900473ffffffffffffffffffffffffffffffffffffffff1673ffffffffffffffffffffffffffffffffffffffff1673ffffffffffffffffffffffffffffffffffffffff16815260200190815260200160002060020181905550565b6040518060e0016040528060008152602001600060ff168152602001600060ff168152602001600060ff168152602001600060ff16815260200160001515815260200160008152509056fea165627a7a72305820dc0abaec54e470e3b3e0772b8ce5d3c3f81da73c5f4fbcf702f79726ff1c935b0029",
  "source": "pragma solidity ^0.5.2;\r\ncontract CryptoSelectionBallot {\r\n   struct Voter {                     \r\n        uint weight;\r\n        uint8 age;\r\n        uint8 isMember;\r\n        uint8 voted;\r\n        uint8 vote;\r\n        bool isRegistered;\r\n        uint max_vote;\r\n    }\r\n    \r\n    struct Proposal {                  \r\n        uint voteCount;\r\n    }\r\n    \r\n    address chairperson;\r\n    address voter_address;\r\n    Proposal[] proposals;\r\n    mapping(address => Voter) voters; \r\n    uint8 state=0; \r\n    \r\n    //modifiers\r\n   modifier validPhase(uint8 reqPhase) \r\n    { \r\n        require(state == reqPhase); \r\n        _; \r\n    } \r\n    \r\n    modifier checkAge()\r\n    {\r\n        require(voters[voter_address].age >=19); \r\n        _;\r\n    }\r\n    modifier onlyChair() \r\n     {\r\n         require(msg.sender == chairperson);\r\n         _;\r\n     }\r\n\r\n    modifier onlyMemberOfCoinDeal()\r\n    {\r\n        require(voters[voter_address].isMember==1);\r\n        _;    \r\n    }\r\n    \r\n    modifier checkIsVoted()\r\n    {\r\n        require(voters[voter_address].voted==0);\r\n        _;\r\n    }\r\n    \r\n    modifier checkMaxVote()\r\n    {\r\n        require(voters[voter_address].max_vote<=4);\r\n        _;\r\n    }\r\n   \r\n   modifier checkRegister()\r\n   {\r\n       require(voters[voter_address].isRegistered==true);\r\n        _;\r\n   }\r\n   constructor (uint8 numProposals) public  {\r\n        chairperson = msg.sender;\r\n        proposals.length = numProposals;\r\n        voters[chairperson].weight = 4;\r\n        state = 1;\r\n    }\r\n    \r\n    function enterAddress(address voter) public{\r\n        voter_address=voter;\r\n    }\r\n    function enterAge(uint8 _age) public {\r\n        voters[voter_address].age=_age;\r\n    }\r\n    \r\n    function enterMembershipDetails(uint8 _ismember) public{\r\n        \r\n        voters[voter_address].isMember=_ismember;\r\n      \r\n    }\r\n    \r\n    function enterVoteDetails(uint8 _isVotedAlready) public{\r\n        voters[voter_address].voted=_isVotedAlready;\r\n    }\r\n    \r\n    function registerAddress(address voter) checkAge onlyMemberOfCoinDeal checkAge public{\r\n        voters[voter].isRegistered=true;\r\n        voters[voter].max_vote=0;\r\n    }\r\n\r\n    function increaseNumberVote() private{\r\n        voters[voter_address].max_vote=voters[voter_address].max_vote+1;\r\n    }\r\n    \r\n    function change(uint8 x)  public {\r\n           \r\n        state = x;\r\n    }\r\n    \r\n    function vote(uint8 toProposal)  public checkRegister validPhase(2) checkMaxVote{\r\n      \r\n        Voter memory sender = voters[voter_address];\r\n        \r\n        require (toProposal < proposals.length); \r\n        enterVoteDetails(1);\r\n        increaseNumberVote();\r\n        voters[voter_address].vote = toProposal;   \r\n        proposals[toProposal].voteCount += 1;\r\n    }\r\n    \r\n    function reqWinner() public validPhase(3) view returns (uint8 winningProposal) {\r\n       \r\n        uint256 winningVoteCount = 0;\r\n        for (uint8 prop = 0; prop < proposals.length; prop++) \r\n            if (proposals[prop].voteCount > winningVoteCount) {\r\n                winningVoteCount = proposals[prop].voteCount;\r\n                winningProposal = prop;\r\n            }\r\n       assert(winningVoteCount>=1);\r\n    }\r\n  \r\n}",
  "sourcePath": "C:/UB/Blockchain 526/Ballot-Up/ballot-contract/contracts/CryptoSelectionBallot.sol",
  "compiler": {
    "name": "solc",
    "version": "0.5.8+commit.23d335f2.Emscripten.clang"
  },
  "schemaVersion": "3.0.16",
  "updatedAt": "2019-11-15T20:45:16.364Z",
  "devdoc": {
    "methods": {}
  },
  "userdoc": {
    "methods": {}
  }
}